{
  "_format": "hh-sol-artifact-1",
  "contractName": "TokenVesting",
  "sourceName": "contracts/TokenVesting.sol",
  "abi": [
    {
      "inputs": [
        {
          "internalType": "address",
          "name": "_token",
          "type": "address"
        }
      ],
      "stateMutability": "nonpayable",
      "type": "constructor"
    },
    {
      "inputs": [
        {
          "internalType": "address",
          "name": "beneficiary",
          "type": "address"
        },
        {
          "internalType": "uint256",
          "name": "start",
          "type": "uint256"
        },
        {
          "internalType": "uint256",
          "name": "duration",
          "type": "uint256"
        },
        {
          "internalType": "uint256",
          "name": "totalAmount",
          "type": "uint256"
        }
      ],
      "name": "addBeneficiary",
      "outputs": [],
      "stateMutability": "nonpayable",
      "type": "function"
    },
    {
      "inputs": [],
      "name": "claimTokens",
      "outputs": [],
      "stateMutability": "nonpayable",
      "type": "function"
    },
    {
      "inputs": [
        {
          "internalType": "address",
          "name": "beneficiary",
          "type": "address"
        }
      ],
      "name": "getReleasableAmount",
      "outputs": [
        {
          "internalType": "uint256",
          "name": "",
          "type": "uint256"
        }
      ],
      "stateMutability": "view",
      "type": "function"
    },
    {
      "inputs": [],
      "name": "token",
      "outputs": [
        {
          "internalType": "address",
          "name": "",
          "type": "address"
        }
      ],
      "stateMutability": "view",
      "type": "function"
    }
  ],
  "bytecode": "0x608060405234801561001057600080fd5b50604051610a7b380380610a7b833981810160405281019061003291906100dc565b80600160006101000a81548173ffffffffffffffffffffffffffffffffffffffff021916908373ffffffffffffffffffffffffffffffffffffffff16021790555050610109565b600080fd5b600073ffffffffffffffffffffffffffffffffffffffff82169050919050565b60006100a98261007e565b9050919050565b6100b98161009e565b81146100c457600080fd5b50565b6000815190506100d6816100b0565b92915050565b6000602082840312156100f2576100f1610079565b5b6000610100848285016100c7565b91505092915050565b610963806101186000396000f3fe608060405234801561001057600080fd5b506004361061004c5760003560e01c80632afd1a7d1461005157806348c54b9d14610081578063b095e1291461008b578063fc0c546a146100a7575b600080fd5b61006b600480360381019061006691906104f3565b6100c5565b6040516100789190610539565b60405180910390f35b610089610114565b005b6100a560048036038101906100a09190610580565b61025e565b005b6100af61037e565b6040516100bc91906105f6565b60405180910390f35b600061010d6000808473ffffffffffffffffffffffffffffffffffffffff1673ffffffffffffffffffffffffffffffffffffffff1681526020019081526020016000206103a4565b9050919050565b60008060003373ffffffffffffffffffffffffffffffffffffffff1673ffffffffffffffffffffffffffffffffffffffff16815260200190815260200160002090506000610161826103a4565b9050600081116101a6576040517f08c379a000000000000000000000000000000000000000000000000000000000815260040161019d9061066e565b60405180910390fd5b6101b9818361042690919063ffffffff16565b600160009054906101000a900473ffffffffffffffffffffffffffffffffffffffff1673ffffffffffffffffffffffffffffffffffffffff1663a9059cbb33836040518363ffffffff1660e01b815260040161021692919061068e565b6020604051808303816000875af1158015610235573d6000803e3d6000fd5b505050506040513d601f19601f8201168201806040525081019061025991906106ef565b505050565b60008060008673ffffffffffffffffffffffffffffffffffffffff1673ffffffffffffffffffffffffffffffffffffffff16815260200190815260200160002060020154146102e2576040517f08c379a00000000000000000000000000000000000000000000000000000000081526004016102d990610768565b60405180910390fd5b604051806080016040528084426102f991906107b7565b815260200183815260200182815260200160008152506000808673ffffffffffffffffffffffffffffffffffffffff1673ffffffffffffffffffffffffffffffffffffffff1681526020019081526020016000206000820151816000015560208201518160010155604082015181600201556060820151816003015590505050505050565b600160009054906101000a900473ffffffffffffffffffffffffffffffffffffffff1681565b600081600001544210156103bb5760009050610421565b60008260000154426103cd91906107eb565b905060008360010154905060008183106103ed578460020154905061040b565b818386600201546103fe919061081f565b6104089190610890565b90505b84600301548161041b91906107eb565b93505050505b919050565b61042f826103a4565b811115610471576040517f08c379a00000000000000000000000000000000000000000000000000000000081526004016104689061090d565b60405180910390fd5b8082600301600082825461048591906107b7565b925050819055505050565b600080fd5b600073ffffffffffffffffffffffffffffffffffffffff82169050919050565b60006104c082610495565b9050919050565b6104d0816104b5565b81146104db57600080fd5b50565b6000813590506104ed816104c7565b92915050565b60006020828403121561050957610508610490565b5b6000610517848285016104de565b91505092915050565b6000819050919050565b61053381610520565b82525050565b600060208201905061054e600083018461052a565b92915050565b61055d81610520565b811461056857600080fd5b50565b60008135905061057a81610554565b92915050565b6000806000806080858703121561059a57610599610490565b5b60006105a8878288016104de565b94505060206105b98782880161056b565b93505060406105ca8782880161056b565b92505060606105db8782880161056b565b91505092959194509250565b6105f0816104b5565b82525050565b600060208201905061060b60008301846105e7565b92915050565b600082825260208201905092915050565b7f4e6f20746f6b656e7320617661696c61626c6520666f722072656c6561736500600082015250565b6000610658601f83610611565b915061066382610622565b602082019050919050565b600060208201905081810360008301526106878161064b565b9050919050565b60006040820190506106a360008301856105e7565b6106b0602083018461052a565b9392505050565b60008115159050919050565b6106cc816106b7565b81146106d757600080fd5b50565b6000815190506106e9816106c3565b92915050565b60006020828403121561070557610704610490565b5b6000610713848285016106da565b91505092915050565b7f42656e656669636961727920616c726561647920657869737473000000000000600082015250565b6000610752601a83610611565b915061075d8261071c565b602082019050919050565b6000602082019050818103600083015261078181610745565b9050919050565b7f4e487b7100000000000000000000000000000000000000000000000000000000600052601160045260246000fd5b60006107c282610520565b91506107cd83610520565b92508282019050808211156107e5576107e4610788565b5b92915050565b60006107f682610520565b915061080183610520565b925082820390508181111561081957610818610788565b5b92915050565b600061082a82610520565b915061083583610520565b925082820261084381610520565b9150828204841483151761085a57610859610788565b5b5092915050565b7f4e487b7100000000000000000000000000000000000000000000000000000000600052601260045260246000fd5b600061089b82610520565b91506108a683610520565b9250826108b6576108b5610861565b5b828204905092915050565b7f496e73756666696369656e742076657374656420746f6b656e73000000000000600082015250565b60006108f7601a83610611565b9150610902826108c1565b602082019050919050565b60006020820190508181036000830152610926816108ea565b905091905056fea26469706673582212207888ba00ff360ec98e44c2d8ca3a045be5b6d6a551456ee15f4ac6f844ce0f1e64736f6c634300081b0033",
  "linkReferences": {},
  "deployedLinkReferences": {}
}